{
  "contractName": "DecentralizedVoting",
  "abi": [
    {
      "anonymous": false,
      "inputs": [
        {
          "indexed": false,
          "internalType": "uint256",
          "name": "proposalId",
          "type": "uint256"
        },
        {
          "indexed": false,
          "internalType": "address",
          "name": "creator",
          "type": "address"
        }
      ],
      "name": "ProposalCreated",
      "type": "event"
    },
    {
      "anonymous": false,
      "inputs": [
        {
          "indexed": false,
          "internalType": "uint256",
          "name": "proposalId",
          "type": "uint256"
        },
        {
          "indexed": false,
          "internalType": "address",
          "name": "voter",
          "type": "address"
        },
        {
          "indexed": false,
          "internalType": "bool",
          "name": "vote",
          "type": "bool"
        }
      ],
      "name": "Voted",
      "type": "event"
    },
    {
      "inputs": [
        {
          "internalType": "string",
          "name": "description",
          "type": "string"
        },
        {
          "internalType": "uint256",
          "name": "durationInSeconds",
          "type": "uint256"
        }
      ],
      "name": "createProposal",
      "outputs": [],
      "stateMutability": "nonpayable",
      "type": "function"
    },
    {
      "inputs": [
        {
          "internalType": "uint256",
          "name": "proposalId",
          "type": "uint256"
        },
        {
          "internalType": "bool",
          "name": "voteValue",
          "type": "bool"
        }
      ],
      "name": "vote",
      "outputs": [],
      "stateMutability": "nonpayable",
      "type": "function"
    },
    {
      "inputs": [
        {
          "internalType": "uint256",
          "name": "proposalId",
          "type": "uint256"
        }
      ],
      "name": "getProposalId",
      "outputs": [
        {
          "internalType": "uint256",
          "name": "",
          "type": "uint256"
        }
      ],
      "stateMutability": "view",
      "type": "function"
    },
    {
      "inputs": [
        {
          "internalType": "uint256",
          "name": "proposalId",
          "type": "uint256"
        }
      ],
      "name": "getProposalCreator",
      "outputs": [
        {
          "internalType": "address",
          "name": "",
          "type": "address"
        }
      ],
      "stateMutability": "view",
      "type": "function"
    },
    {
      "inputs": [
        {
          "internalType": "uint256",
          "name": "proposalId",
          "type": "uint256"
        }
      ],
      "name": "getProposalDescription",
      "outputs": [
        {
          "internalType": "string",
          "name": "",
          "type": "string"
        }
      ],
      "stateMutability": "view",
      "type": "function"
    },
    {
      "inputs": [
        {
          "internalType": "uint256",
          "name": "proposalId",
          "type": "uint256"
        }
      ],
      "name": "getProposalDescriptionLength",
      "outputs": [
        {
          "internalType": "uint256",
          "name": "",
          "type": "uint256"
        }
      ],
      "stateMutability": "view",
      "type": "function"
    },
    {
      "inputs": [
        {
          "internalType": "uint256",
          "name": "proposalId",
          "type": "uint256"
        }
      ],
      "name": "getProposalExpirationTime",
      "outputs": [
        {
          "internalType": "uint256",
          "name": "",
          "type": "uint256"
        }
      ],
      "stateMutability": "view",
      "type": "function"
    },
    {
      "inputs": [
        {
          "internalType": "uint256",
          "name": "proposalId",
          "type": "uint256"
        }
      ],
      "name": "getProposalVotes",
      "outputs": [
        {
          "internalType": "uint256",
          "name": "yesVotes",
          "type": "uint256"
        },
        {
          "internalType": "uint256",
          "name": "noVotes",
          "type": "uint256"
        }
      ],
      "stateMutability": "view",
      "type": "function"
    },
    {
      "inputs": [
        {
          "internalType": "uint256",
          "name": "proposalId",
          "type": "uint256"
        }
      ],
      "name": "getProposal",
      "outputs": [
        {
          "internalType": "string",
          "name": "",
          "type": "string"
        }
      ],
      "stateMutability": "view",
      "type": "function"
    },
    {
      "inputs": [
        {
          "internalType": "uint256",
          "name": "proposalId",
          "type": "uint256"
        },
        {
          "internalType": "address",
          "name": "voter",
          "type": "address"
        }
      ],
      "name": "hasVotedFor",
      "outputs": [
        {
          "internalType": "bool",
          "name": "",
          "type": "bool"
        }
      ],
      "stateMutability": "view",
      "type": "function"
    },
    {
      "inputs": [
        {
          "internalType": "uint256",
          "name": "proposalId",
          "type": "uint256"
        }
      ],
      "name": "proposalExists",
      "outputs": [
        {
          "internalType": "bool",
          "name": "",
          "type": "bool"
        }
      ],
      "stateMutability": "view",
      "type": "function"
    },
    {
      "inputs": [],
      "name": "getProposalCount",
      "outputs": [
        {
          "internalType": "uint256",
          "name": "",
          "type": "uint256"
        }
      ],
      "stateMutability": "view",
      "type": "function"
    }
  ],
  "bytecode": "0x608060405234801561001057600080fd5b5061178e806100206000396000f3fe608060405234801561001057600080fd5b50600436106100b45760003560e01c80634d5f9eba116100715780634d5f9eba146101c65780637c95ac27146101f6578063c08cc02d14610226578063c7f758a814610244578063c9d27afe14610274578063ff05d7fd14610290576100b4565b80631374b22d146100b9578063229acb17146100e957806329c315f31461011957806335facf781461014957806347c66140146101655780634bdac5a414610196575b600080fd5b6100d360048036038101906100ce9190610e93565b6102c0565b6040516100e09190611276565b60405180910390f35b61010360048036038101906100fe9190610e93565b6102ed565b6040516101109190611291565b60405180910390f35b610133600480360381019061012e9190610e93565b610374565b6040516101409190611333565b60405180910390f35b610163600480360381019061015e9190610e3f565b6103e8565b005b61017f600480360381019061017a9190610e93565b6105a6565b60405161018d9291906113ae565b60405180910390f35b6101b060048036038101906101ab9190610ebc565b610628565b6040516101bd9190611276565b60405180910390f35b6101e060048036038101906101db9190610e93565b6106d8565b6040516101ed9190611333565b60405180910390f35b610210600480360381019061020b9190610e93565b610740565b60405161021d9190611333565b60405180910390f35b61022e6107a8565b60405161023b9190611333565b60405180910390f35b61025e60048036038101906102599190610e93565b6107b1565b60405161026b9190611291565b60405180910390f35b61028e60048036038101906102899190610ef8565b610870565b005b6102aa60048036038101906102a59190610e93565b610aba565b6040516102b7919061125b565b60405180910390f35b60006001600083815260200190815260200160002060060160009054906101000a900460ff169050919050565b60606102f8826102c0565b610337576040517f08c379a000000000000000000000000000000000000000000000000000000000815260040161032e906112f3565b60405180910390fd5b6040518060400160405280601081526020017f54657374204465736372697074696f6e000000000000000000000000000000008152509050919050565b600061037f826102c0565b6103be576040517f08c379a00000000000000000000000000000000000000000000000000000000081526004016103b5906112f3565b60405180910390fd5b6001600083815260200190815260200160002060020180546103df9061159a565b90509050919050565b600081426103f6919061145f565b905042811161043a576040517f08c379a0000000000000000000000000000000000000000000000000000000008152600401610431906112d3565b60405180910390fd5b60008081548092919061044c906115cc565b91905055506000805490506040518060e001604052808281526020013373ffffffffffffffffffffffffffffffffffffffff168152602001858152602001838152602001600081526020016000815260200160011515815250600160008381526020019081526020016000206000820151816000015560208201518160010160006101000a81548173ffffffffffffffffffffffffffffffffffffffff021916908373ffffffffffffffffffffffffffffffffffffffff1602179055506040820151816002019080519060200190610525929190610cf5565b50606082015181600301556080820151816004015560a0820151816005015560c08201518160060160006101000a81548160ff0219169083151502179055509050507fcd423cc1203c0af96b9b3d68d73b3064a69de2d14450bb7181c5e5df2132b358813360405161059892919061134e565b60405180910390a150505050565b6000806105b2836102c0565b6105f1576040517f08c379a00000000000000000000000000000000000000000000000000000000081526004016105e8906112f3565b60405180910390fd5b6001600084815260200190815260200160002060040154600160008581526020019081526020016000206005015491509150915091565b6000610633836102c0565b610672576040517f08c379a0000000000000000000000000000000000000000000000000000000008152600401610669906112f3565b60405180910390fd5b6002600084815260200190815260200160002060008373ffffffffffffffffffffffffffffffffffffffff1673ffffffffffffffffffffffffffffffffffffffff16815260200190815260200160002060009054906101000a900460ff16905092915050565b60006106e3826102c0565b610722576040517f08c379a0000000000000000000000000000000000000000000000000000000008152600401610719906112f3565b60405180910390fd5b60016000838152602001908152602001600020600301549050919050565b600061074b826102c0565b61078a576040517f08c379a0000000000000000000000000000000000000000000000000000000008152600401610781906112f3565b60405180910390fd5b60016000838152602001908152602001600020600001549050919050565b60008054905090565b60606107bc826102c0565b6107fb576040517f08c379a00000000000000000000000000000000000000000000000000000000081526004016107f2906112f3565b60405180910390fd5b600060016000848152602001908152602001600020905061081f8160000154610b42565b61082c8260030154610b42565b6108398360040154610b42565b6108468460050154610b42565b60405160200161085994939291906111f1565b604051602081830303815290604052915050919050565b610879826102c0565b6108b8576040517f08c379a00000000000000000000000000000000000000000000000000000000081526004016108af906112f3565b60405180910390fd5b60016000838152602001908152602001600020600301544210610910576040517f08c379a000000000000000000000000000000000000000000000000000000000815260040161090790611313565b60405180910390fd5b6002600083815260200190815260200160002060003373ffffffffffffffffffffffffffffffffffffffff1673ffffffffffffffffffffffffffffffffffffffff16815260200190815260200160002060009054906101000a900460ff16156109ae576040517f08c379a00000000000000000000000000000000000000000000000000000000081526004016109a5906112b3565b60405180910390fd5b80156109e5576001600083815260200190815260200160002060040160008154809291906109db906115cc565b9190505550610a12565b600160008381526020019081526020016000206005016000815480929190610a0c906115cc565b91905055505b60016002600084815260200190815260200160002060003373ffffffffffffffffffffffffffffffffffffffff1673ffffffffffffffffffffffffffffffffffffffff16815260200190815260200160002060006101000a81548160ff0219169083151502179055507ff2913dbe661ee2acc4a046d8fbcdc792373bda34c41c6086484b5345e5785e5f823383604051610aae93929190611377565b60405180910390a15050565b6000610ac5826102c0565b610b04576040517f08c379a0000000000000000000000000000000000000000000000000000000008152600401610afb906112f3565b60405180910390fd5b6001600083815260200190815260200160002060010160009054906101000a900473ffffffffffffffffffffffffffffffffffffffff169050919050565b60606000821415610b8a576040518060400160405280600181526020017f30000000000000000000000000000000000000000000000000000000000000008152509050610cf0565b600082905060005b60008214610bbc578080610ba5906115cc565b915050600a82610bb591906114b5565b9150610b92565b60008167ffffffffffffffff811115610bfe577f4e487b7100000000000000000000000000000000000000000000000000000000600052604160045260246000fd5b6040519080825280601f01601f191660200182016040528015610c305781602001600182028036833780820191505090505b50905060008290508593505b60008414610ce857600a84610c519190611615565b6030610c5d919061145f565b60f81b8282610c6b90611570565b92508281518110610ca5577f4e487b7100000000000000000000000000000000000000000000000000000000600052603260045260246000fd5b60200101907effffffffffffffffffffffffffffffffffffffffffffffffffffffffffffff1916908160001a905350600a84610ce191906114b5565b9350610c3c565b819450505050505b919050565b828054610d019061159a565b90600052602060002090601f016020900481019282610d235760008555610d6a565b82601f10610d3c57805160ff1916838001178555610d6a565b82800160010185558215610d6a579182015b82811115610d69578251825591602001919060010190610d4e565b5b509050610d779190610d7b565b5090565b5b80821115610d94576000816000905550600101610d7c565b5090565b6000610dab610da684611408565b6113d7565b905082815260208101848484011115610dc357600080fd5b610dce84828561152e565b509392505050565b600081359050610de581611713565b92915050565b600081359050610dfa8161172a565b92915050565b600082601f830112610e1157600080fd5b8135610e21848260208601610d98565b91505092915050565b600081359050610e3981611741565b92915050565b60008060408385031215610e5257600080fd5b600083013567ffffffffffffffff811115610e6c57600080fd5b610e7885828601610e00565b9250506020610e8985828601610e2a565b9150509250929050565b600060208284031215610ea557600080fd5b6000610eb384828501610e2a565b91505092915050565b60008060408385031215610ecf57600080fd5b6000610edd85828601610e2a565b9250506020610eee85828601610dd6565b9150509250929050565b60008060408385031215610f0b57600080fd5b6000610f1985828601610e2a565b9250506020610f2a85828601610deb565b9150509250929050565b610f3d816114e6565b82525050565b610f4c816114f8565b82525050565b6000610f5d82611438565b610f678185611443565b9350610f7781856020860161153d565b610f8081611702565b840191505092915050565b6000610f9682611438565b610fa08185611454565b9350610fb081856020860161153d565b80840191505092915050565b6000610fc9600c83611454565b91507f2c204e6f20566f7465733a2000000000000000000000000000000000000000006000830152600c82019050919050565b6000611009600d83611443565b91507f416c726561647920766f746564000000000000000000000000000000000000006000830152602082019050919050565b6000611049600483611454565b91507f49443a20000000000000000000000000000000000000000000000000000000006000830152600482019050919050565b6000611089600e83611454565b91507f2c2045787069726174696f6e3a200000000000000000000000000000000000006000830152600e82019050919050565b60006110c9602283611443565b91507f4475726174696f6e206d7573742062652067726561746572207468616e207a6560008301527f726f0000000000000000000000000000000000000000000000000000000000006020830152604082019050919050565b600061112f601783611443565b91507f50726f706f73616c20646f6573206e6f742065786973740000000000000000006000830152602082019050919050565b600061116f600d83611454565b91507f2c2059657320566f7465733a20000000000000000000000000000000000000006000830152600d82019050919050565b60006111af601483611443565b91507f50726f706f73616c2068617320657870697265640000000000000000000000006000830152602082019050919050565b6111eb81611524565b82525050565b60006111fc8261103c565b91506112088287610f8b565b91506112138261107c565b915061121f8286610f8b565b915061122a82611162565b91506112368285610f8b565b915061124182610fbc565b915061124d8284610f8b565b915081905095945050505050565b60006020820190506112706000830184610f34565b92915050565b600060208201905061128b6000830184610f43565b92915050565b600060208201905081810360008301526112ab8184610f52565b905092915050565b600060208201905081810360008301526112cc81610ffc565b9050919050565b600060208201905081810360008301526112ec816110bc565b9050919050565b6000602082019050818103600083015261130c81611122565b9050919050565b6000602082019050818103600083015261132c816111a2565b9050919050565b600060208201905061134860008301846111e2565b92915050565b600060408201905061136360008301856111e2565b6113706020830184610f34565b9392505050565b600060608201905061138c60008301866111e2565b6113996020830185610f34565b6113a66040830184610f43565b949350505050565b60006040820190506113c360008301856111e2565b6113d060208301846111e2565b9392505050565b6000604051905081810181811067ffffffffffffffff821117156113fe576113fd6116d3565b5b8060405250919050565b600067ffffffffffffffff821115611423576114226116d3565b5b601f19601f8301169050602081019050919050565b600081519050919050565b600082825260208201905092915050565b600081905092915050565b600061146a82611524565b915061147583611524565b9250827fffffffffffffffffffffffffffffffffffffffffffffffffffffffffffffffff038211156114aa576114a9611646565b5b828201905092915050565b60006114c082611524565b91506114cb83611524565b9250826114db576114da611675565b5b828204905092915050565b60006114f182611504565b9050919050565b60008115159050919050565b600073ffffffffffffffffffffffffffffffffffffffff82169050919050565b6000819050919050565b82818337600083830152505050565b60005b8381101561155b578082015181840152602081019050611540565b8381111561156a576000848401525b50505050565b600061157b82611524565b9150600082141561158f5761158e611646565b5b600182039050919050565b600060028204905060018216806115b257607f821691505b602082108114156115c6576115c56116a4565b5b50919050565b60006115d782611524565b91507fffffffffffffffffffffffffffffffffffffffffffffffffffffffffffffffff82141561160a57611609611646565b5b600182019050919050565b600061162082611524565b915061162b83611524565b92508261163b5761163a611675565b5b828206905092915050565b7f4e487b7100000000000000000000000000000000000000000000000000000000600052601160045260246000fd5b7f4e487b7100000000000000000000000000000000000000000000000000000000600052601260045260246000fd5b7f4e487b7100000000000000000000000000000000000000000000000000000000600052602260045260246000fd5b7f4e487b7100000000000000000000000000000000000000000000000000000000600052604160045260246000fd5b6000601f19601f8301169050919050565b61171c816114e6565b811461172757600080fd5b50565b611733816114f8565b811461173e57600080fd5b50565b61174a81611524565b811461175557600080fd5b5056fea2646970667358221220f28aa77fbb66c36ba6fe1f4756b1dbe00e96488567a81f6f17440f0c896f076064736f6c63430008000033",
  "immutableReferences": {},
  "source": "// SPDX-License-Identifier: MIT\r\npragma solidity ^0.8.0;\r\n\r\ncontract DecentralizedVoting {\r\n    uint256 private _proposalIds;\r\n\r\n    struct Proposal {\r\n        uint256 id;\r\n        address creator;\r\n        string description;\r\n        uint256 expirationTime;\r\n        uint256 yesVotes;\r\n        uint256 noVotes;\r\n        bool exists;\r\n    }\r\n\r\n    mapping(uint256 => Proposal) private proposals;\r\n    mapping(uint256 => mapping(address => bool)) private hasVoted;\r\n\r\n    event ProposalCreated(uint256 proposalId, address creator);\r\n    event Voted(uint256 proposalId, address voter, bool vote);\r\n\r\n    function createProposal(string memory description, uint256 durationInSeconds) public {\r\n        uint256 _expirationTime = block.timestamp + durationInSeconds;\r\n        require(_expirationTime > block.timestamp, \"Duration must be greater than zero\");\r\n\r\n        _proposalIds++;\r\n        uint256 newProposalId = _proposalIds;\r\n\r\n        proposals[newProposalId] = Proposal({\r\n            id: newProposalId,\r\n            creator: msg.sender,\r\n            description: description,\r\n            expirationTime: _expirationTime,\r\n            yesVotes: 0,\r\n            noVotes: 0,\r\n            exists: true\r\n        });\r\n\r\n        emit ProposalCreated(newProposalId, msg.sender);\r\n    }\r\n\r\n    function vote(uint256 proposalId, bool voteValue) public {\r\n        require(proposalExists(proposalId), \"Proposal does not exist\");\r\n        require(block.timestamp < proposals[proposalId].expirationTime, \"Proposal has expired\");\r\n        require(!hasVoted[proposalId][msg.sender], \"Already voted\");\r\n\r\n        if (voteValue) {\r\n            proposals[proposalId].yesVotes++;\r\n        } else {\r\n            proposals[proposalId].noVotes++;\r\n        }\r\n\r\n        hasVoted[proposalId][msg.sender] = true;\r\n\r\n        emit Voted(proposalId, msg.sender, voteValue);\r\n    }\r\n\r\n    function getProposalId(uint256 proposalId) public view returns (uint256) {\r\n        require(proposalExists(proposalId), \"Proposal does not exist\");\r\n        return proposals[proposalId].id;\r\n    }\r\n\r\n    function getProposalCreator(uint256 proposalId) public view returns (address) {\r\n        require(proposalExists(proposalId), \"Proposal does not exist\");\r\n        return proposals[proposalId].creator;\r\n    }\r\n\r\n    function getProposalDescription(uint256 proposalId) public view returns (string memory) {\r\n        require(proposalExists(proposalId), \"Proposal does not exist\");\r\n        return \"Test Description\"; // Return a fixed string instead of proposals[proposalId].description\r\n    }\r\n\r\n    function getProposalDescriptionLength(uint256 proposalId) public view returns (uint256) {\r\n        require(proposalExists(proposalId), \"Proposal does not exist\");\r\n        return bytes(proposals[proposalId].description).length;\r\n    }\r\n\r\n    function getProposalExpirationTime(uint256 proposalId) public view returns (uint256) {\r\n        require(proposalExists(proposalId), \"Proposal does not exist\");\r\n        return proposals[proposalId].expirationTime;\r\n    }\r\n\r\n    function getProposalVotes(uint256 proposalId) public view returns (uint256 yesVotes, uint256 noVotes) {\r\n        require(proposalExists(proposalId), \"Proposal does not exist\");\r\n        return (proposals[proposalId].yesVotes, proposals[proposalId].noVotes);\r\n    }\r\n\r\n    // function getProposal(uint256 proposalId) public view returns (string memory) {\r\n    //     require(proposalExists(proposalId), \"Proposal does not exist\");\r\n    //     Proposal storage proposal = proposals[proposalId];\r\n    //     return string(abi.encodePacked(\r\n    //         \"ID: \", _uint2str(proposal.id),\r\n    //         \", Creator: \", _addressToString(proposal.creator),\r\n    //         \", Description: \", proposal.description,\r\n    //         \", Expiration: \", _uint2str(proposal.expirationTime),\r\n    //         \", Yes Votes: \", _uint2str(proposal.yesVotes),\r\n    //         \", No Votes: \", _uint2str(proposal.noVotes),\r\n    //         \", Exists: \", proposal.exists ? \"true\" : \"false\"\r\n    //     ));\r\n    // }\r\n\r\n    function getProposal(uint256 proposalId) public view returns (string memory) {\r\n        require(proposalExists(proposalId), \"Proposal does not exist\");\r\n        Proposal storage proposal = proposals[proposalId];\r\n        return string(abi.encodePacked(\r\n            \"ID: \", _uint2str(proposal.id),\r\n            \", Expiration: \", _uint2str(proposal.expirationTime),\r\n            \", Yes Votes: \", _uint2str(proposal.yesVotes),\r\n            \", No Votes: \", _uint2str(proposal.noVotes)\r\n        ));\r\n    }\r\n\r\n    function hasVotedFor(uint256 proposalId, address voter) public view returns (bool) {\r\n        require(proposalExists(proposalId), \"Proposal does not exist\");\r\n        return hasVoted[proposalId][voter];\r\n    }\r\n\r\n    function proposalExists(uint256 proposalId) public view returns (bool) {\r\n        return proposals[proposalId].exists;\r\n    }\r\n\r\n    function getProposalCount() public view returns (uint256) {\r\n        return _proposalIds;\r\n    }\r\n\r\n    function _uint2str(uint256 _i) internal pure returns (string memory str) {\r\n        if (_i == 0) return \"0\";\r\n        uint256 j = _i;\r\n        uint256 length;\r\n        while (j != 0) {\r\n            length++;\r\n            j /= 10;\r\n        }\r\n        bytes memory bstr = new bytes(length);\r\n        uint256 k = length;\r\n        j = _i;\r\n        while (j != 0) {\r\n            bstr[--k] = bytes1(uint8(48 + j % 10));\r\n            j /= 10;\r\n        }\r\n        str = string(bstr);\r\n    }\r\n\r\n    function _addressToString(address _addr) internal pure returns (string memory) {\r\n        bytes32 value = bytes32(uint256(uint160(_addr)));\r\n        bytes memory alphabet = \"0123456789abcdef\";\r\n        bytes memory str = new bytes(42);\r\n        str[0] = '0';\r\n        str[1] = 'x';\r\n        for (uint256 i = 0; i < 20; i++) {\r\n            str[2+i*2] = alphabet[uint8(value[i + 12] >> 4)];\r\n            str[3+i*2] = alphabet[uint8(value[i + 12] & 0x0f)];\r\n        }\r\n        return string(str);\r\n    }\r\n}",
  "sourcePath": "C:\\Users\\HP\\Desktop\\Zimozi Solution\\decentralized-voting-app\\contracts\\DecentralizedVoting.sol",
  "compiler": {
    "name": "solc",
    "version": "0.8.0+commit.c7dfd78e.Emscripten.clang"
  },
  "schemaVersion": "3.4.16",
  "updatedAt": "2024-09-27T10:03:04.391Z",
  "devdoc": {
    "kind": "dev",
    "methods": {},
    "version": 1
  },
  "userdoc": {
    "kind": "user",
    "methods": {},
    "version": 1
  }
}